{
  "fileName": "TFCManager.sol",
  "contractName": "TFCManager",
  "source": "// SPDX-License-Identifier: Apache-2.0\n\npragma solidity ^0.6.0;\n\nimport \"./TFCToken.sol\";\n\ncontract TFCManager {\n    mapping(uint256 => bool) public usedNonces;\n\n    address public signer;\n\n    TFCToken public tfcToken;\n\n    constructor() public {\n        signer = msg.sender;\n        tfcToken = new TFCToken(new address[](0), new uint256[](0));\n    }\n\n    function claimTFC(uint256 amount, uint256 nonce, bytes memory sig)\n    public\n    {\n        require(!usedNonces[nonce], \"nonce has already been used\");\n        usedNonces[nonce] = true;\n\n        // This recreates the message that was signed on the client.\n        bytes32 message = prefixed(keccak256(abi.encodePacked(msg.sender, amount, nonce, this)));\n\n        require(recoverSigner(message, sig) == signer, \"unauthorized claim\");\n\n        // mint TFC tokens for the msg.sender\n        tfcToken.mint(msg.sender, amount);\n    }\n\n    function splitSignature(bytes memory sig)\n    internal\n    pure\n    returns (uint8, bytes32, bytes32)\n    {\n        require(sig.length == 65, \"signature length incorrect\");\n\n        bytes32 r;\n        bytes32 s;\n        uint8 v;\n\n        assembly {\n        // first 32 bytes, after the length prefix\n            r := mload(add(sig, 32))\n        // second 32 bytes\n            s := mload(add(sig, 64))\n        // final byte (first byte of the next 32 bytes)\n            v := byte(0, mload(add(sig, 96)))\n        }\n\n        return (v, r, s);\n    }\n\n    function recoverSigner(bytes32 message, bytes memory sig)\n    internal\n    pure\n    returns (address)\n    {\n        uint8 v;\n        bytes32 r;\n        bytes32 s;\n\n        (v, r, s) = splitSignature(sig);\n\n        return ecrecover(message, v, r, s);\n    }\n\n    // Builds a prefixed hash to mimic the behavior of eth_sign.\n    function prefixed(bytes32 hash)\n    internal\n    pure\n    returns (bytes32) {\n        return keccak256(abi.encodePacked(\"\\x19Ethereum Signed Message:\\n32\", hash));\n    }\n}\n",
  "sourcePath": "contracts/TFCManager.sol",
  "abi": [
    {
      "inputs": [],
      "stateMutability": "nonpayable",
      "type": "constructor"
    },
    {
      "inputs": [
        {
          "internalType": "uint256",
          "name": "amount",
          "type": "uint256"
        },
        {
          "internalType": "uint256",
          "name": "nonce",
          "type": "uint256"
        },
        {
          "internalType": "bytes",
          "name": "sig",
          "type": "bytes"
        }
      ],
      "name": "claimTFC",
      "outputs": [],
      "stateMutability": "nonpayable",
      "type": "function"
    },
    {
      "inputs": [],
      "name": "signer",
      "outputs": [
        {
          "internalType": "address",
          "name": "",
          "type": "address"
        }
      ],
      "stateMutability": "view",
      "type": "function"
    },
    {
      "inputs": [],
      "name": "tfcToken",
      "outputs": [
        {
          "internalType": "contract TFCToken",
          "name": "",
          "type": "address"
        }
      ],
      "stateMutability": "view",
      "type": "function"
    },
    {
      "inputs": [
        {
          "internalType": "uint256",
          "name": "",
          "type": "uint256"
        }
      ],
      "name": "usedNonces",
      "outputs": [
        {
          "internalType": "bool",
          "name": "",
          "type": "bool"
        }
      ],
      "stateMutability": "view",
      "type": "function"
    }
  ],
  "bytecode": "0x608060405234801561001057600080fd5b5033600160006101000a81548173ffffffffffffffffffffffffffffffffffffffff021916908373ffffffffffffffffffffffffffffffffffffffff160217905550600067ffffffffffffffff8111801561006a57600080fd5b506040519080825280602002602001820160405280156100995781602001602082028036833780820191505090505b50600067ffffffffffffffff811180156100b257600080fd5b506040519080825280602002602001820160405280156100e15781602001602082028036833780820191505090505b506040516100ee906101e3565b808060200180602001838103835285818151815260200191508051906020019060200280838360005b83811015610132578082015181840152602081019050610117565b50505050905001838103825284818151815260200191508051906020019060200280838360005b83811015610174578082015181840152602081019050610159565b50505050905001945050505050604051809103906000f08015801561019d573d6000803e3d6000fd5b50600260006101000a81548173ffffffffffffffffffffffffffffffffffffffff021916908373ffffffffffffffffffffffffffffffffffffffff1602179055506101f0565b61327b806108b383390190565b6106b4806101ff6000396000f3fe608060405234801561001057600080fd5b506004361061004c5760003560e01c8063238ac933146100515780632d6fec1d146100855780636717e41c14610154578063ff59d11814610198575b600080fd5b6100596101cc565b604051808273ffffffffffffffffffffffffffffffffffffffff16815260200191505060405180910390f35b6101526004803603606081101561009b57600080fd5b810190808035906020019092919080359060200190929190803590602001906401000000008111156100cc57600080fd5b8201836020820111156100de57600080fd5b8035906020019184600183028401116401000000008311171561010057600080fd5b91908080601f016020809104026020016040519081016040528093929190818152602001838380828437600081840152601f19601f8201169050808301925050505050505091929192905050506101f2565b005b6101806004803603602081101561016a57600080fd5b81019080803590602001909291905050506104aa565b60405180821515815260200191505060405180910390f35b6101a06104ca565b604051808273ffffffffffffffffffffffffffffffffffffffff16815260200191505060405180910390f35b600160009054906101000a900473ffffffffffffffffffffffffffffffffffffffff1681565b60008083815260200190815260200160002060009054906101000a900460ff1615610285576040517f08c379a000000000000000000000000000000000000000000000000000000000815260040180806020018281038252601b8152602001807f6e6f6e63652068617320616c7265616479206265656e2075736564000000000081525060200191505060405180910390fd5b600160008084815260200190815260200160002060006101000a81548160ff021916908315150217905550600061032b33858530604051602001808573ffffffffffffffffffffffffffffffffffffffff1660601b81526014018481526020018381526020018273ffffffffffffffffffffffffffffffffffffffff1660601b8152601401945050505050604051602081830303815290604052805190602001206104f0565b9050600160009054906101000a900473ffffffffffffffffffffffffffffffffffffffff1673ffffffffffffffffffffffffffffffffffffffff166103708284610548565b73ffffffffffffffffffffffffffffffffffffffff16146103f9576040517f08c379a00000000000000000000000000000000000000000000000000000000081526004018080602001828103825260128152602001807f756e617574686f72697a656420636c61696d000000000000000000000000000081525060200191505060405180910390fd5b600260009054906101000a900473ffffffffffffffffffffffffffffffffffffffff1673ffffffffffffffffffffffffffffffffffffffff166340c10f1933866040518363ffffffff1660e01b8152600401808373ffffffffffffffffffffffffffffffffffffffff16815260200182815260200192505050600060405180830381600087803b15801561048c57600080fd5b505af11580156104a0573d6000803e3d6000fd5b5050505050505050565b60006020528060005260406000206000915054906101000a900460ff1681565b600260009054906101000a900473ffffffffffffffffffffffffffffffffffffffff1681565b60008160405160200180807f19457468657265756d205369676e6564204d6573736167653a0a333200000000815250601c01828152602001915050604051602081830303815290604052805190602001209050919050565b600080600080610557856105d2565b80935081945082955050505060018684848460405160008152602001604052604051808581526020018460ff1681526020018381526020018281526020019450505050506020604051602081039080840390855afa1580156105bd573d6000803e3d6000fd5b50505060206040510351935050505092915050565b6000806000604184511461064e576040517f08c379a000000000000000000000000000000000000000000000000000000000815260040180806020018281038252601a8152602001807f7369676e6174757265206c656e67746820696e636f727265637400000000000081525060200191505060405180910390fd5b60008060006020870151925060408701519150606087015160001a9050808383955095509550505050919390925056fea2646970667358221220d1052f36bfb2f0d7377caa5a1642fc84fce6fc9396b6031351a22e7c0270506264736f6c634300060c003360806040523480156200001157600080fd5b506040516200327b3803806200327b833981810160405260408110156200003757600080fd5b81019080805160405193929190846401000000008211156200005857600080fd5b838201915060208201858111156200006f57600080fd5b82518660208202830111640100000000821117156200008d57600080fd5b8083526020830192505050908051906020019060200280838360005b83811015620000c6578082015181840152602081019050620000a9565b5050505090500160405260200180516040519392919084640100000000821115620000f057600080fd5b838201915060208201858111156200010757600080fd5b82518660208202830111640100000000821117156200012557600080fd5b8083526020830192505050908051906020019060200280838360005b838110156200015e57808201518184015260208101905062000141565b505050509050016040525050506040518060400160405280600881526020017f544643546f6b656e0000000000000000000000000000000000000000000000008152506040518060400160405280600381526020017f544643000000000000000000000000000000000000000000000000000000000081525081818160049080519060200190620001f192919062000882565b5080600590805190602001906200020a92919062000882565b506012600660006101000a81548160ff021916908360ff16021790555050506000600660016101000a81548160ff021916908315150217905550620002686000801b6200025c620003c560201b60201c565b620003cd60201b60201c565b620002a97f9f2df0fed2c77648de5860a4cc508cd0818c85b8b8a1ab4ceeef8d981c8956a66200029d620003c560201b60201c565b620003cd60201b60201c565b620002ea7f65d7a28e3265b37a6474929f336521b332c1681b933f6cb9f3376673440d862a620002de620003c560201b60201c565b620003cd60201b60201c565b5050805182511462000348576040517f08c379a0000000000000000000000000000000000000000000000000000000008152600401808060200182810382526040815260200180620032116040913960400191505060405180910390fd5b60005b8251811015620003bc5760008282815181106200036457fe5b60200260200101511115620003ae57620003ad8382815181106200038457fe5b60200260200101518383815181106200039957fe5b6020026020010151620003e360201b60201c565b5b80806001019150506200034b565b50505062000928565b600033905090565b620003df8282620005c360201b60201c565b5050565b600073ffffffffffffffffffffffffffffffffffffffff168273ffffffffffffffffffffffffffffffffffffffff16141562000487576040517f08c379a000000000000000000000000000000000000000000000000000000000815260040180806020018281038252601f8152602001807f45524332303a206d696e7420746f20746865207a65726f20616464726573730081525060200191505060405180910390fd5b6200049b600083836200066660201b60201c565b620004b7816003546200068360201b620015441790919060201c565b6003819055506200051681600160008573ffffffffffffffffffffffffffffffffffffffff1673ffffffffffffffffffffffffffffffffffffffff168152602001908152602001600020546200068360201b620015441790919060201c565b600160008473ffffffffffffffffffffffffffffffffffffffff1673ffffffffffffffffffffffffffffffffffffffff168152602001908152602001600020819055508173ffffffffffffffffffffffffffffffffffffffff16600073ffffffffffffffffffffffffffffffffffffffff167fddf252ad1be2c89b69c2b068fc378daa952ba7f163c4a11628f55a4df523b3ef836040518082815260200191505060405180910390a35050565b620005f1816000808581526020019081526020016000206000016200070c60201b620015cc1790919060201c565b15620006625762000607620003c560201b60201c565b73ffffffffffffffffffffffffffffffffffffffff168173ffffffffffffffffffffffffffffffffffffffff16837f2f8788117e7eff1d82e926ec794901d17c78024a50270940304540a733656f0d60405160405180910390a45b5050565b6200067e8383836200074460201b620015fc1760201c565b505050565b60008082840190508381101562000702576040517f08c379a000000000000000000000000000000000000000000000000000000000815260040180806020018281038252601b8152602001807f536166654d6174683a206164646974696f6e206f766572666c6f77000000000081525060200191505060405180910390fd5b8091505092915050565b60006200073c836000018373ffffffffffffffffffffffffffffffffffffffff1660001b620007c960201b60201c565b905092915050565b6200075c8383836200084360201b6200166a1760201c565b6200076c6200084860201b60201c565b15620007c4576040517f08c379a000000000000000000000000000000000000000000000000000000000815260040180806020018281038252602a81526020018062003251602a913960400191505060405180910390fd5b505050565b6000620007dd83836200085f60201b60201c565b620008385782600001829080600181540180825580915050600190039060005260206000200160009091909190915055826000018054905083600101600084815260200190815260200160002081905550600190506200083d565b600090505b92915050565b505050565b6000600660019054906101000a900460ff16905090565b600080836001016000848152602001908152602001600020541415905092915050565b828054600181600116156101000203166002900490600052602060002090601f016020900481019282601f10620008c557805160ff1916838001178555620008f6565b82800160010185558215620008f6579182015b82811115620008f5578251825591602001919060010190620008d8565b5b50905062000905919062000909565b5090565b5b80821115620009245760008160009055506001016200090a565b5090565b6128d980620009386000396000f3fe608060405234801561001057600080fd5b50600436106101c45760003560e01c806370a08231116100f9578063a457c2d711610097578063d539139311610071578063d5391393146109de578063d547741f146109fc578063dd62ed3e14610a4a578063e63ab1e914610ac2576101c4565b8063a457c2d7146108d4578063a9059cbb14610938578063ca15c8731461099c576101c4565b80639010d07c116100d35780639010d07c1461076d57806391d14854146107cf57806395d89b4114610833578063a217fddf146108b6576101c4565b806370a08231146106bd57806379cc6790146107155780638456cb5914610763576101c4565b806336568abe1161016657806340c10f191161014057806340c10f19146104bf57806342966c681461050d578063436ff61b1461053b5780635c975abb1461069d576101c4565b806336568abe1461040357806339509351146104515780633f4ba83a146104b5576101c4565b806323b872dd116101a257806323b872dd146102ce578063248a9ca3146103525780632f2ff15d14610394578063313ce567146103e2576101c4565b806306fdde03146101c9578063095ea7b31461024c57806318160ddd146102b0575b600080fd5b6101d1610ae0565b6040518080602001828103825283818151815260200191508051906020019080838360005b838110156102115780820151818401526020810190506101f6565b50505050905090810190601f16801561023e5780820380516001836020036101000a031916815260200191505b509250505060405180910390f35b6102986004803603604081101561026257600080fd5b81019080803573ffffffffffffffffffffffffffffffffffffffff16906020019092919080359060200190929190505050610b82565b60405180821515815260200191505060405180910390f35b6102b8610ba0565b6040518082815260200191505060405180910390f35b61033a600480360360608110156102e457600080fd5b81019080803573ffffffffffffffffffffffffffffffffffffffff169060200190929190803573ffffffffffffffffffffffffffffffffffffffff16906020019092919080359060200190929190505050610baa565b60405180821515815260200191505060405180910390f35b61037e6004803603602081101561036857600080fd5b8101908080359060200190929190505050610c83565b6040518082815260200191505060405180910390f35b6103e0600480360360408110156103aa57600080fd5b8101908080359060200190929190803573ffffffffffffffffffffffffffffffffffffffff169060200190929190505050610ca2565b005b6103ea610d2b565b604051808260ff16815260200191505060405180910390f35b61044f6004803603604081101561041957600080fd5b8101908080359060200190929190803573ffffffffffffffffffffffffffffffffffffffff169060200190929190505050610d42565b005b61049d6004803603604081101561046757600080fd5b81019080803573ffffffffffffffffffffffffffffffffffffffff16906020019092919080359060200190929190505050610ddb565b60405180821515815260200191505060405180910390f35b6104bd610e8e565b005b61050b600480360360408110156104d557600080fd5b81019080803573ffffffffffffffffffffffffffffffffffffffff16906020019092919080359060200190929190505050610f1e565b005b6105396004803603602081101561052357600080fd5b8101908080359060200190929190505050610fb2565b005b6106856004803603604081101561055157600080fd5b810190808035906020019064010000000081111561056e57600080fd5b82018360208201111561058057600080fd5b803590602001918460208302840111640100000000831117156105a257600080fd5b919080806020026020016040519081016040528093929190818152602001838360200280828437600081840152601f19601f8201169050808301925050505050505091929192908035906020019064010000000081111561060257600080fd5b82018360208201111561061457600080fd5b8035906020019184602083028401116401000000008311171561063657600080fd5b919080806020026020016040519081016040528093929190818152602001838360200280828437600081840152601f19601f820116905080830192505050505050509192919290505050610fc6565b60405180821515815260200191505060405180910390f35b6106a561107e565b60405180821515815260200191505060405180910390f35b6106ff600480360360208110156106d357600080fd5b81019080803573ffffffffffffffffffffffffffffffffffffffff169060200190929190505050611095565b6040518082815260200191505060405180910390f35b6107616004803603604081101561072b57600080fd5b81019080803573ffffffffffffffffffffffffffffffffffffffff169060200190929190803590602001909291905050506110de565b005b61076b611140565b005b6107a36004803603604081101561078357600080fd5b8101908080359060200190929190803590602001909291905050506111d0565b604051808273ffffffffffffffffffffffffffffffffffffffff16815260200191505060405180910390f35b61081b600480360360408110156107e557600080fd5b8101908080359060200190929190803573ffffffffffffffffffffffffffffffffffffffff169060200190929190505050611201565b60405180821515815260200191505060405180910390f35b61083b611232565b6040518080602001828103825283818151815260200191508051906020019080838360005b8381101561087b578082015181840152602081019050610860565b50505050905090810190601f1680156108a85780820380516001836020036101000a031916815260200191505b509250505060405180910390f35b6108be6112d4565b6040518082815260200191505060405180910390f35b610920600480360360408110156108ea57600080fd5b81019080803573ffffffffffffffffffffffffffffffffffffffff169060200190929190803590602001909291905050506112db565b60405180821515815260200191505060405180910390f35b6109846004803603604081101561094e57600080fd5b81019080803573ffffffffffffffffffffffffffffffffffffffff169060200190929190803590602001909291905050506113a8565b60405180821515815260200191505060405180910390f35b6109c8600480360360208110156109b257600080fd5b81019080803590602001909291905050506113c6565b6040518082815260200191505060405180910390f35b6109e66113ec565b6040518082815260200191505060405180910390f35b610a4860048036036040811015610a1257600080fd5b8101908080359060200190929190803573ffffffffffffffffffffffffffffffffffffffff169060200190929190505050611410565b005b610aac60048036036040811015610a6057600080fd5b81019080803573ffffffffffffffffffffffffffffffffffffffff169060200190929190803573ffffffffffffffffffffffffffffffffffffffff169060200190929190505050611499565b6040518082815260200191505060405180910390f35b610aca611520565b6040518082815260200191505060405180910390f35b606060048054600181600116156101000203166002900480601f016020809104026020016040519081016040528092919081815260200182805460018160011615610100020316600290048015610b785780601f10610b4d57610100808354040283529160200191610b78565b820191906000526020600020905b815481529060010190602001808311610b5b57829003601f168201915b5050505050905090565b6000610b96610b8f61166f565b8484611677565b6001905092915050565b6000600354905090565b6000610bb784848461186e565b610c7884610bc361166f565b610c738560405180606001604052806028815260200161270360289139600260008b73ffffffffffffffffffffffffffffffffffffffff1673ffffffffffffffffffffffffffffffffffffffff1681526020019081526020016000206000610c2961166f565b73ffffffffffffffffffffffffffffffffffffffff1673ffffffffffffffffffffffffffffffffffffffff16815260200190815260200160002054611b339092919063ffffffff16565b611677565b600190509392505050565b6000806000838152602001908152602001600020600201549050919050565b610cc860008084815260200190815260200160002060020154610cc361166f565b611201565b610d1d576040517f08c379a000000000000000000000000000000000000000000000000000000000815260040180806020018281038252602f8152602001806125cd602f913960400191505060405180910390fd5b610d278282611bf3565b5050565b6000600660009054906101000a900460ff16905090565b610d4a61166f565b73ffffffffffffffffffffffffffffffffffffffff168173ffffffffffffffffffffffffffffffffffffffff1614610dcd576040517f08c379a000000000000000000000000000000000000000000000000000000000815260040180806020018281038252602f81526020018061284b602f913960400191505060405180910390fd5b610dd78282611c86565b5050565b6000610e84610de861166f565b84610e7f8560026000610df961166f565b73ffffffffffffffffffffffffffffffffffffffff1673ffffffffffffffffffffffffffffffffffffffff16815260200190815260200160002060008973ffffffffffffffffffffffffffffffffffffffff1673ffffffffffffffffffffffffffffffffffffffff1681526020019081526020016000205461154490919063ffffffff16565b611677565b6001905092915050565b610ebf7f65d7a28e3265b37a6474929f336521b332c1681b933f6cb9f3376673440d862a610eba61166f565b611201565b610f14576040517f08c379a000000000000000000000000000000000000000000000000000000000815260040180806020018281038252603981526020018061261e6039913960400191505060405180910390fd5b610f1c611d19565b565b610f4f7f9f2df0fed2c77648de5860a4cc508cd0818c85b8b8a1ab4ceeef8d981c8956a6610f4a61166f565b611201565b610fa4576040517f08c379a000000000000000000000000000000000000000000000000000000000815260040180806020018281038252603681526020018061272b6036913960400191505060405180910390fd5b610fae8282611e0c565b5050565b610fc3610fbd61166f565b82611fd5565b50565b60008151835114611022576040517f08c379a00000000000000000000000000000000000000000000000000000000081526004018080602001828103825260348152602001806126796034913960400191505060405180910390fd5b60005b83518110156110735761106661103961166f565b85838151811061104557fe5b602002602001015185848151811061105957fe5b602002602001015161186e565b8080600101915050611025565b506001905092915050565b6000600660019054906101000a900460ff16905090565b6000600160008373ffffffffffffffffffffffffffffffffffffffff1673ffffffffffffffffffffffffffffffffffffffff168152602001908152602001600020549050919050565b600061111d826040518060600160405280602481526020016127616024913961110e8661110961166f565b611499565b611b339092919063ffffffff16565b90506111318361112b61166f565b83611677565b61113b8383611fd5565b505050565b6111717f65d7a28e3265b37a6474929f336521b332c1681b933f6cb9f3376673440d862a61116c61166f565b611201565b6111c6576040517f08c379a00000000000000000000000000000000000000000000000000000000081526004018080602001828103825260378152602001806127ef6037913960400191505060405180910390fd5b6111ce61219b565b565b60006111f98260008086815260200190815260200160002060000161228f90919063ffffffff16565b905092915050565b600061122a826000808681526020019081526020016000206000016122a990919063ffffffff16565b905092915050565b606060058054600181600116156101000203166002900480601f0160208091040260200160405190810160405280929190818152602001828054600181600116156101000203166002900480156112ca5780601f1061129f576101008083540402835291602001916112ca565b820191906000526020600020905b8154815290600101906020018083116112ad57829003601f168201915b5050505050905090565b6000801b81565b600061139e6112e861166f565b8461139985604051806060016040528060258152602001612826602591396002600061131261166f565b73ffffffffffffffffffffffffffffffffffffffff1673ffffffffffffffffffffffffffffffffffffffff16815260200190815260200160002060008a73ffffffffffffffffffffffffffffffffffffffff1673ffffffffffffffffffffffffffffffffffffffff16815260200190815260200160002054611b339092919063ffffffff16565b611677565b6001905092915050565b60006113bc6113b561166f565b848461186e565b6001905092915050565b60006113e56000808481526020019081526020016000206000016122d9565b9050919050565b7f9f2df0fed2c77648de5860a4cc508cd0818c85b8b8a1ab4ceeef8d981c8956a681565b6114366000808481526020019081526020016000206002015461143161166f565b611201565b61148b576040517f08c379a00000000000000000000000000000000000000000000000000000000081526004018080602001828103825260308152602001806126d36030913960400191505060405180910390fd5b6114958282611c86565b5050565b6000600260008473ffffffffffffffffffffffffffffffffffffffff1673ffffffffffffffffffffffffffffffffffffffff16815260200190815260200160002060008373ffffffffffffffffffffffffffffffffffffffff1673ffffffffffffffffffffffffffffffffffffffff16815260200190815260200160002054905092915050565b7f65d7a28e3265b37a6474929f336521b332c1681b933f6cb9f3376673440d862a81565b6000808284019050838110156115c2576040517f08c379a000000000000000000000000000000000000000000000000000000000815260040180806020018281038252601b8152602001807f536166654d6174683a206164646974696f6e206f766572666c6f77000000000081525060200191505060405180910390fd5b8091505092915050565b60006115f4836000018373ffffffffffffffffffffffffffffffffffffffff1660001b6122ee565b905092915050565b61160783838361166a565b61160f61107e565b15611665576040517f08c379a000000000000000000000000000000000000000000000000000000000815260040180806020018281038252602a81526020018061287a602a913960400191505060405180910390fd5b505050565b505050565b600033905090565b600073ffffffffffffffffffffffffffffffffffffffff168373ffffffffffffffffffffffffffffffffffffffff1614156116fd576040517f08c379a00000000000000000000000000000000000000000000000000000000081526004018080602001828103825260248152602001806127cb6024913960400191505060405180910390fd5b600073ffffffffffffffffffffffffffffffffffffffff168273ffffffffffffffffffffffffffffffffffffffff161415611783576040517f08c379a00000000000000000000000000000000000000000000000000000000081526004018080602001828103825260228152602001806126576022913960400191505060405180910390fd5b80600260008573ffffffffffffffffffffffffffffffffffffffff1673ffffffffffffffffffffffffffffffffffffffff16815260200190815260200160002060008473ffffffffffffffffffffffffffffffffffffffff1673ffffffffffffffffffffffffffffffffffffffff168152602001908152602001600020819055508173ffffffffffffffffffffffffffffffffffffffff168373ffffffffffffffffffffffffffffffffffffffff167f8c5be1e5ebec7d5bd14f71427d1e84f3dd0314c0f7b2291e5b200ac8c7c3b925836040518082815260200191505060405180910390a3505050565b600073ffffffffffffffffffffffffffffffffffffffff168373ffffffffffffffffffffffffffffffffffffffff1614156118f4576040517f08c379a00000000000000000000000000000000000000000000000000000000081526004018080602001828103825260258152602001806127a66025913960400191505060405180910390fd5b600073ffffffffffffffffffffffffffffffffffffffff168273ffffffffffffffffffffffffffffffffffffffff16141561197a576040517f08c379a00000000000000000000000000000000000000000000000000000000081526004018080602001828103825260238152602001806125aa6023913960400191505060405180910390fd5b61198583838361235e565b6119f1816040518060600160405280602681526020016126ad60269139600160008773ffffffffffffffffffffffffffffffffffffffff1673ffffffffffffffffffffffffffffffffffffffff16815260200190815260200160002054611b339092919063ffffffff16565b600160008573ffffffffffffffffffffffffffffffffffffffff1673ffffffffffffffffffffffffffffffffffffffff16815260200190815260200160002081905550611a8681600160008573ffffffffffffffffffffffffffffffffffffffff1673ffffffffffffffffffffffffffffffffffffffff1681526020019081526020016000205461154490919063ffffffff16565b600160008473ffffffffffffffffffffffffffffffffffffffff1673ffffffffffffffffffffffffffffffffffffffff168152602001908152602001600020819055508173ffffffffffffffffffffffffffffffffffffffff168373ffffffffffffffffffffffffffffffffffffffff167fddf252ad1be2c89b69c2b068fc378daa952ba7f163c4a11628f55a4df523b3ef836040518082815260200191505060405180910390a3505050565b6000838311158290611be0576040517f08c379a00000000000000000000000000000000000000000000000000000000081526004018080602001828103825283818151815260200191508051906020019080838360005b83811015611ba5578082015181840152602081019050611b8a565b50505050905090810190601f168015611bd25780820380516001836020036101000a031916815260200191505b509250505060405180910390fd5b5060008385039050809150509392505050565b611c1a816000808581526020019081526020016000206000016115cc90919063ffffffff16565b15611c8257611c2761166f565b73ffffffffffffffffffffffffffffffffffffffff168173ffffffffffffffffffffffffffffffffffffffff16837f2f8788117e7eff1d82e926ec794901d17c78024a50270940304540a733656f0d60405160405180910390a45b5050565b611cad8160008085815260200190815260200160002060000161236e90919063ffffffff16565b15611d1557611cba61166f565b73ffffffffffffffffffffffffffffffffffffffff168173ffffffffffffffffffffffffffffffffffffffff16837ff6391f5c32d9c69d2a47ea670b442974b53935d1edc7fd64eb21e047a839171b60405160405180910390a45b5050565b600660019054906101000a900460ff16611d9b576040517f08c379a00000000000000000000000000000000000000000000000000000000081526004018080602001828103825260148152602001807f5061757361626c653a206e6f742070617573656400000000000000000000000081525060200191505060405180910390fd5b6000600660016101000a81548160ff0219169083151502179055507f5db9ee0a495bf2e6ff9c91a7834c1ba4fdd244a5e8aa4e537bd38aeae4b073aa611ddf61166f565b604051808273ffffffffffffffffffffffffffffffffffffffff16815260200191505060405180910390a1565b600073ffffffffffffffffffffffffffffffffffffffff168273ffffffffffffffffffffffffffffffffffffffff161415611eaf576040517f08c379a000000000000000000000000000000000000000000000000000000000815260040180806020018281038252601f8152602001807f45524332303a206d696e7420746f20746865207a65726f20616464726573730081525060200191505060405180910390fd5b611ebb6000838361235e565b611ed08160035461154490919063ffffffff16565b600381905550611f2881600160008573ffffffffffffffffffffffffffffffffffffffff1673ffffffffffffffffffffffffffffffffffffffff1681526020019081526020016000205461154490919063ffffffff16565b600160008473ffffffffffffffffffffffffffffffffffffffff1673ffffffffffffffffffffffffffffffffffffffff168152602001908152602001600020819055508173ffffffffffffffffffffffffffffffffffffffff16600073ffffffffffffffffffffffffffffffffffffffff167fddf252ad1be2c89b69c2b068fc378daa952ba7f163c4a11628f55a4df523b3ef836040518082815260200191505060405180910390a35050565b600073ffffffffffffffffffffffffffffffffffffffff168273ffffffffffffffffffffffffffffffffffffffff16141561205b576040517f08c379a00000000000000000000000000000000000000000000000000000000081526004018080602001828103825260218152602001806127856021913960400191505060405180910390fd5b6120678260008361235e565b6120d3816040518060600160405280602281526020016125fc60229139600160008673ffffffffffffffffffffffffffffffffffffffff1673ffffffffffffffffffffffffffffffffffffffff16815260200190815260200160002054611b339092919063ffffffff16565b600160008473ffffffffffffffffffffffffffffffffffffffff1673ffffffffffffffffffffffffffffffffffffffff1681526020019081526020016000208190555061212b8160035461239e90919063ffffffff16565b600381905550600073ffffffffffffffffffffffffffffffffffffffff168273ffffffffffffffffffffffffffffffffffffffff167fddf252ad1be2c89b69c2b068fc378daa952ba7f163c4a11628f55a4df523b3ef836040518082815260200191505060405180910390a35050565b600660019054906101000a900460ff161561221e576040517f08c379a00000000000000000000000000000000000000000000000000000000081526004018080602001828103825260108152602001807f5061757361626c653a207061757365640000000000000000000000000000000081525060200191505060405180910390fd5b6001600660016101000a81548160ff0219169083151502179055507f62e78cea01bee320cd4e420270b5ea74000d11b0c9f74754ebdbfc544b05a25861226261166f565b604051808273ffffffffffffffffffffffffffffffffffffffff16815260200191505060405180910390a1565b600061229e83600001836123e8565b60001c905092915050565b60006122d1836000018373ffffffffffffffffffffffffffffffffffffffff1660001b61246b565b905092915050565b60006122e78260000161248e565b9050919050565b60006122fa838361246b565b612353578260000182908060018154018082558091505060019003906000526020600020016000909190919091505582600001805490508360010160008481526020019081526020016000208190555060019050612358565b600090505b92915050565b6123698383836115fc565b505050565b6000612396836000018373ffffffffffffffffffffffffffffffffffffffff1660001b61249f565b905092915050565b60006123e083836040518060400160405280601e81526020017f536166654d6174683a207375627472616374696f6e206f766572666c6f770000815250611b33565b905092915050565b600081836000018054905011612449576040517f08c379a00000000000000000000000000000000000000000000000000000000081526004018080602001828103825260228152602001806125886022913960400191505060405180910390fd5b82600001828154811061245857fe5b9060005260206000200154905092915050565b600080836001016000848152602001908152602001600020541415905092915050565b600081600001805490509050919050565b6000808360010160008481526020019081526020016000205490506000811461257b57600060018203905060006001866000018054905003905060008660000182815481106124ea57fe5b906000526020600020015490508087600001848154811061250757fe5b906000526020600020018190555060018301876001016000838152602001908152602001600020819055508660000180548061253f57fe5b60019003818190600052602060002001600090559055866001016000878152602001908152602001600020600090556001945050505050612581565b60009150505b9291505056fe456e756d657261626c655365743a20696e646578206f7574206f6620626f756e647345524332303a207472616e7366657220746f20746865207a65726f2061646472657373416363657373436f6e74726f6c3a2073656e646572206d75737420626520616e2061646d696e20746f206772616e7445524332303a206275726e20616d6f756e7420657863656564732062616c616e636545524332305072657365744d696e7465725061757365723a206d75737420686176652070617573657220726f6c6520746f20756e706175736545524332303a20617070726f766520746f20746865207a65726f20616464726573736172726179206c656e677468206f6620726563697069656e747320616e6420616d6f756e7473206d75737420626520657175616c45524332303a207472616e7366657220616d6f756e7420657863656564732062616c616e6365416363657373436f6e74726f6c3a2073656e646572206d75737420626520616e2061646d696e20746f207265766f6b6545524332303a207472616e7366657220616d6f756e74206578636565647320616c6c6f77616e636545524332305072657365744d696e7465725061757365723a206d7573742068617665206d696e74657220726f6c6520746f206d696e7445524332303a206275726e20616d6f756e74206578636565647320616c6c6f77616e636545524332303a206275726e2066726f6d20746865207a65726f206164647265737345524332303a207472616e736665722066726f6d20746865207a65726f206164647265737345524332303a20617070726f76652066726f6d20746865207a65726f206164647265737345524332305072657365744d696e7465725061757365723a206d75737420686176652070617573657220726f6c6520746f20706175736545524332303a2064656372656173656420616c6c6f77616e63652062656c6f77207a65726f416363657373436f6e74726f6c3a2063616e206f6e6c792072656e6f756e636520726f6c657320666f722073656c6645524332305061757361626c653a20746f6b656e207472616e73666572207768696c6520706175736564a2646970667358221220bf1e5797642da9f8c28af1255ce434ad67a3200447a136f11436a8f7ee38aae464736f6c634300060c00336172726179206c656e677468206f6620696e697469616c486f6c6465727320616e6420696e697469616c537570706c696573206d75737420626520657175616c45524332305061757361626c653a20746f6b656e207472616e73666572207768696c6520706175736564",
  "compiler": {
    "name": "solc",
    "version": "0.6.12+commit.27d51765.Darwin.appleclang",
    "optimizer": {
      "enabled": false,
      "runs": 200
    },
    "evmVersion": "petersburg"
  }
}